:040000000C943D001F
:100004000C9400000C9400000C9400000C9400006C
:100014000C9400000C9400000C9400000C9400005C
:100024000C9400000C9400000C9400000C9400004C
:100034000C9400000C9400000C9400000C9400003C
:100044000C9400000C9400000C9400000C9400002C
:100054001027E80364000A000100001000011000EA
:10006400010001002D4E414E00494E4600000100A2
:10007400600166000000F894EE27ECBBF1E0FBBFE2
:10008400EBBFE5BFF8E1F1BDE1BD8DE0A2E0BB2728
:10009400ED938A95E9F780E094E0A0E6ED9301976B
:1000A400E9F7E2E7F0E085919591009761F0A59179
:1000B400B59105901590BF01F00105900D9201973F
:1000C400E1F7FB01F0CFEFE5EDBFE4E0EEBFC0E602
:1000D400D1E00C946D00E0E0EBBBEFEFEABBE0E0B5
:1000E400E8BBE7BBE5BBE4BBE2BBE1BBE3BFE2BF0C
:1000F400ECBFEFBDEEBDEDBDECBDE7BDE6BDEBBDB8
:10010400EABDE9BDE8BDE2BDE5BDE4BDE3BDE5BFD3
:10011400E4BFE9BFEBB9E8E1EAB9E6E8E0BDE0E055
:10012400E0BDE3E3E9B9E0E8E8B9E0E0E0BFE6B95F
:10013400EDB9E6BF0DD05E2EA52D04D0A52D0CD0B3
:10014400F9CFFFCFAA93E881ECB95D9BFECF2CC019
:100154005F9BFECFECB10895AA93A881A63429F43D
:10016400D89AD998DA98DB9A1BC0A881A23421F4D2
:10017400D898D99ADA9A13C0A881AC3411F4D89AD1
:100184000CC0A881A23529F4D898D998DA98DB9ABA
:1001940007C0A881A33541F4D898D998DA98DB9898
:1001A400ACE2B1E00E94D80021960895109639F08F
:1001B40080ED97E00197F1F7A8951197C9F7089595
:00000001FF
